:020000000529D0
:08000800CF00030E8312A000DB
:0E0010000A0EA100040EA2008A110A122C2969
:10002000AE08031D14280800F53000000000000091
:1000300000000000000000000000000000000000C0
:1000400000000000000000000000FF3E031D152816
:1000500000000000000000000000000000000000A0
:1000600000000000000000000000AE0B1428080093
:10007000C0308316810081308312AE008316860162
:1000800083122E0886006430AE0010208230AE004D
:100090008316860183122E0886006430AE0010207D
:1000A0008430AE008316860183122E0886006430E9
:1000B000AE0010208830AE008316860183122E0811
:1000C00086006430AE0010208130AE0083168601B9
:1000D00083122E0886006430AE0010204130AE003E
:1000E0008316860183122E0886006430AE0010202D
:1000F0004230AE008316860183122E0886006430DB
:10010000AE0010204430AE008316860183122E0804
:1001100086006430AE0010204830AE0083168601A1
:1001200083122E0886006430AE0010204130AE00ED
:100130008316860183122E0886006430AE001020DC
:100140002130AE008316860183122E0886006430AB
:10015000AE0010202230AE008316860183122E08D6
:1001600086006430AE0010202630AE008316860173
:1001700083122E0886006430AE0010202830AE00B6
:100180008316860183122E0886006430AE0010208C
:100190002130AE008316860183122E08860064305B
:1001A000AE0010201130AE008316860183122E0897
:1001B00086006430AE0010201230AE008316860137
:1001C00083122E0886006430AE0010201430AE007A
:1001D0008316860183122E0886006430AE0010203C
:1001E0001830AE008316860183122E088600643014
:1001F000AE0010201130AE008316860183122E0847
:1002000086006430AE0010203B28D53083128C006D
:10021000C4308D00BB308E00DC308F009001910126
:10022000920193019401950196019701980199011A
:100230009A019B01A801A901A301A401AA01AB0194
:10024000AC01AD019C019D019E019F01A601A7018A
:10025000A5018A110A1238288312220E8400210E69
:0C0260008A00200E8300CF0E4F0E090014
:02400E00FA3F77
:00000001FF
