:020000040000FA
:10000000831686018312813086000B22823086009F
:100010000B22843086000B22883086000B22413070
:1000200086000B22423086000B22443086000B22D1
:10003000483086000B22213086000B2222308600B9
:100040000B22263086000B22283086000B2211302E
:1000500086000B22123086000B22143086000B2201
:10006000183086000B2281308600EB21823086001A
:10007000EB2184308600EB2188308600EB21413073
:100080008600EB2142308600EB2144308600EB21D4
:1000900048308600EB2121308600EB21223086009B
:1000A000EB2126308600EB2128308600EB21113031
:1000B0008600EB2112308600EB2114308600EB2104
:1000C00018308600EB2181308600EB2182308600DB
:1000D000EB2184308600EB2188308600EB21413013
:1000E0008600EB2142308600EB2144308600EB2174
:1000F00048308600EB2121308600EB21223086003B
:10010000EB2126308600EB2128308600EB211130D0
:100110008600EB2112308600EB2114308600EB21A3
:1001200018308600EB218F3086000B224F3086007E
:100130000B222F3086000B221F3086000B228F30BF
:100140008600E9214F308600E9212F308600E92121
:100150001F308600E92111308600EB211230860025
:10016000EB2114308600EB2118308600EB21213082
:100170008600EB2122308600EB2126308600EB2121
:1001800028308600EB2141308600EB21423086008A
:10019000EB2144308600EB2148308600EB21813092
:1001A0008600EB2182308600EB2184308600EB2133
:1001B00088308600EB2111308600EB21123086005A
:1001C000EB2114308600EB2118308600EB21213022
:1001D0008600EB2122308600EB2126308600EB21C1
:1001E00028308600EB2141308600EB21423086002A
:1001F000EB2144308600EB2148308600EB21813032
:100200008600EB2182308600EB2184308600EB21D2
:1002100088308600EB21FF3086000B22FE308600FE
:100220000B22FD3086000B22FB3086000B22F730BC
:1002300086000B22FF3086000B22FE3086000B2248
:10024000FD3086000B22FB3086000B22F730860043
:100250000B22FF3086000B22FE3086000B22FD3081
:1002600086000B22FB3086000B22F73086000B2223
:10027000FF3086000B22FE3086000B22FD30860008
:100280000B22FB3086000B22F73086000B22FF305A
:100290008600EB21FE308600EB21FD308600EB214D
:1002A000FB308600EB21F7308600EB21FF30860023
:1002B000EB21FE308600EB21FD308600EB21FB3088
:1002C0008600EB21F7308600EB21FF308600EB2122
:1002D000FE308600EB21FD308600EB21FB308600EE
:1002E000EB21F7308600EB21FF308600EB21FE305A
:1002F0008600EB21FD308600EB21FB308600EB21F0
:10030000F7308600EB21FF308600EB21FE308600BF
:10031000EB21FD308600EB21FB308600EB21F7302E
:100320008600EB21FF308600EB21FE308600EB21BA
:10033000FD308600EB21FB308600EB21F730860094
:10034000EB21FF308600EB21FE308600EB21FD30F3
:100350008600EB21FB308600EB21F7308600EB2195
:10036000FF308600EB21FE308600EB21FD30860059
:10037000EB21FB308600EB21F7308600EB21FF30CC
:1003800086000B22FF3086000B22FF3086000B22F6
:10039000FF3086000B22FF3086000B22FF308600E4
:1003A0000B220328000000000000000000000000F5
:1003B00008000000A430E52900004030E5291F3086
:1003C000E52900000E30E52905308C008C0BE6296C
:1003D0000800C830F8296430F8293230F829143080
:1003E000F8290A30F8290530F8290230F8290130B7
:1003F0008D00F9308C0000008C0BFB298D0BF92946
:100400000800C8300C2A64300C2A32300C2A143010
:100410000C2A0A300C2A05308E0064308D00F93029
:100420008C0000008C0B112A8D0B0F2A8E0B0D2ACD
:020430000800C2
:02400E00F13F80
:00000001FF
