:020000040000FA
:100000008316860183128F30860052204F3086007F
:1000100052202F30860052201F30860052202F3071
:10002000860052204F30860052208F3086005220AA
:10003000032800000000000000000000000008008D
:100040000000A4302C28000040302C281F302C2821
:1000500000000E302C2805308C008C0B2D28080059
:10006000C8303F2864303F2832303F2814303F28C2
:100070000A303F2805303F2802303F2801308D00EC
:10008000F9308C0000008C0B42288D0B40280800B2
:10009000C830532864305328323053281430532842
:1000A0000A30532805308E0064308D00F9308C0002
:1000B00000008C0B58288D0B56288E0B54280800F6
:02400E00F13F80
:00000001FF
